:020000040800F2
:10000000980600208901000891010008930100086A
:100010009501000897010008990100080000000000
:100020000000000000000000000000009B0100082C
:100030009D010008000000009F0100080105000864
:10004000A3010008A3010008A3010008A301000800
:10005000A3010008A3010008A3010008A3010008F0
:10006000A3010008A3010008A3010008A3010008E0
:10007000A3010008A3010008A3010008A3010008D0
:10008000A3010008A3010008A3010008A3010008C0
:10009000A3010008A3010008A3010008A3010008B0
:1000A000A3010008A3010008A3010008A3010008A0
:1000B000A3010008A3010008A3010008A301000890
:1000C000A3010008A3010008A3010008A301000880
:1000D000A3010008A3010008A3010008A301000870
:1000E000A3010008A3010008A301000800F002F822
:1000F00000F03AF80AA090E8000C82448344AAF188
:100100000107DA4501D100F02FF8AFF2090EBAE885
:100110000F0013F0010F18BFFB1A43F0010318473B
:10012000080C0000280C0000103A24BF78C878C1E1
:10013000FAD8520724BF30C830C144BF04680C60ED
:10014000704700000023002400250026103A28BF35
:1001500078C1FBD8520728BF30C148BF0B60704739
:100160001FB51FBD10B510BD00F031F81146FFF7E7
:10017000F7FF00F04DFC00F04FF803B4FFF7F2FF7B
:1001800003BC00F057F800000948804709480047C1
:10019000FEE7FEE7FEE7FEE7FEE7FEE7FEE7FEE737
:1001A000FEE7FEE704480549054A064B7047000094
:1001B000BD050008ED00000898000020980600200A
:1001C00098020020980200207047704770477546DB
:1001D00000F02CF8AE4605006946534620F00700B3
:1001E000854618B020B5FFF7DDFFBDE820404FF091
:1001F00000064FF000074FF000084FF0000B21F011
:100200000701AC46ACE8C009ACE8C009ACE8C009DD
:10021000ACE8C0098D46704710B50446AFF30080C6
:100220002046BDE81040FFF7A8BF00000048704717
:100230003400002001491820ABBEFEE72600020072
:100240007047000070B500F067F913480068134A62
:10025000B0FBF2F1481EB0F1807F00D31BE0481ED6
:100260004FF0E022506150170F22002804DB1307E3
:100270001C0E0B4B1C5406E013071D0E094B00F01F
:100280000F04241F1D5500BF00204FF0E022906195
:100290000720106100BF70BD2000002040420F0009
:1002A00000E400E018ED00E000B5024602E01E2088
:1002B00000F006F8101EA2F10102F8D100BD000006
:1002C0000349086000BF024909680029FBD1704753
:1002D000140000202DE9F0410246002500260020F0
:1002E00000230024002791F803C00CF00F0591F8BB
:1002F00003C00CF0100CBCF1000F03D091F802C049
:100300004CEA050591F800C0BCF1000F31D014682B
:1003100000202BE04FF0010C0CFA00F3B1F800C004
:100320000CEA03069E4220D183004FF00F0C0CFA1A
:1003300003F7BC4305FA03FC4CEA040491F803C03C
:10034000BCF1280F06D14FF0010C0CFA00FCC2F8EA
:1003500014C00AE091F803C0BCF1480F05D14FF07A
:10036000010C0CFA00FCC2F810C0401C0828D1D3C4
:100370001460B1F800C0BCF1FF0F34DD54680020F8
:100380002EE000F1080C4FF0010808FA0CF3B1F868
:1003900000C00CEA03069E4221D183004FF00F0CEF
:1003A0000CFA03F7BC4305FA03FC4CEA040491F889
:1003B00003C0BCF1280F05D100F1080C08FA0CF8B5
:1003C000C2F8148091F803C0BCF1480F07D100F1C6
:1003D000080C4FF0010808FA0CF8C2F81080401C15
:1003E0000828CED35460BDE8F081416170470161B7
:1003F0007047C1607047000029B1064A9269024304
:10040000044B9A6104E0034A92698243014B9A616A
:10041000704700000010024010B500F001F810BD58
:100420000CB50020019000903348006840F4803003
:100430003149086000BF3048006800F40030009087
:100440000198401C0190009818B90198B0F5A06F70
:10045000F1D12948006800F4003010B1012000906B
:1004600001E0002000900098012843D12348006853
:1004700040F01000214908600846006820F007009D
:1004800008600846006840F0020008601A484068AA
:10049000194948600846406848600846406840F48A
:1004A000806048600846406820F47C104860084638
:1004B000406840F4E81048600846006840F08070EA
:1004C000086000BF0C48006800F000700028F9D0F8
:1004D0000948406820F00300074948600846406822
:1004E00040F00200486000BF0348406800F00C0084
:1004F0000828F9D10CBD0000001002400020024085
:100500000448006820B103480068401E01490860A3
:10051000704700001400002010B5002100200022C8
:10052000214B5B6803F00C0121B1042906D0082996
:1005300028D107E01D4B1E4C236027E01B4B1C4CB1
:10054000236023E0184B5B6803F47010164B5B6864
:1005500003F48032022303EB904022B9154B43434E
:10056000134C23600DE0104B5B6803F4003323B1A0
:10057000104B43430E4C236003E00C4B43430C4CA5
:10058000236003E0094B0A4C236000BF00BF064B09
:100590005B68C3F30313084CE15C054B1B68CB405D
:1005A000034C236010BD00000010024000127A00CE
:1005B0002000002000093D002400002010B5134851
:1005C000006840F001001149086008464068104981
:1005D00008400E494860084600680E4908400B492B
:1005E00008600846006820F48020086008464068DB
:1005F00020F4FE0048604FF41F008860FFF70CFFF6
:100600004FF000600449086010BD00000010024077
:100610000000FFF8FFFFF6FE08ED00E010B5012036
:1006200000F0E4F910BD10B5062000F0DFF910BDB0
:1006300010B500F047F910BD70B504460D462DB950
:10064000E1B241F0800000F0D1F906E004F1400190
:10065000C9B241F0800000F0C9F970BD10B5044680
:10066000FFF7F0FD01210820FFF7C6FE012104205D
:10067000FFF7C2FE4FF4E040274908801020C87001
:10068000022088702548FFF725FE4FF4706022494C
:1006900008801020C870022088702148FFF71AFED9
:1006A0004FF47A50FFF70CFE4FF400701C491031E4
:1006B00008604010086000F0F5F841F28830FFF75C
:1006C000FFFD00F0EFF84020FFF7FAFD00F0EAF838
:1006D0004020FFF7F5FD4FF400701149103108601C
:1006E0004010091D086000F0DDF84020FFF7E8FD2C
:1006F000282000F07BF9082000F078F9FFF78EFF42
:10070000FFF791FF074804700146097841F008009F
:1007100000F06CF910BD00001A000020000C014030
:10072000000801401800002070B50546402D01DA90
:10073000402400E0002444F0800000F057F970BD30
:1007400070B505460E46144631462846FFF774FF3D
:10075000204600F054F970BD70B50546FFF768FFFC
:1007600004460A2D03D12046FFF7DEFF0FE0102CD0
:1007700004D10021C02000F0B5F805E0502C03D1D1
:100780000021802000F0AEF8284600F038F970BD56
:1007900010B5044603E014F8010BFFF7DDFF2078E5
:1007A0000028F8D110BD000070B5054600244FF4B4
:1007B00000503949086015B14010086004E04FF45A
:1007C00080503549091D08604FF470603349088036
:1007D0004820C870022088703148FFF77BFD4FF435
:1007E00080402D4908600220FFF76AFD2C48083040
:1007F000006800F4807008B144F010042848083004
:10080000006800F4007008B144F020042448083067
:10081000006800F4806008B144F0400420480830CB
:10082000006800F4006008B144F080044FF4804098
:100830001949091D08600220FFF742FD4FF480406E
:10084000154908600220FFF73BFD15480830006895
:1008500000F4807008B144F00104114808300068C9
:1008600000F4007008B144F002040D48083000683C
:1008700000F4806008B144F00404094808300068BE
:1008800000F4006008B144F008044FF480400249CD
:10089000091D0860204670BD100C01401A000020A0
:1008A0000008014010B54FF480400549086002205F
:1008B000FFF706FD4FF480400149091D086010BD97
:1008C000100C014010B500BF0020FFF76DFF00F0D5
:1008D00080000028F8D10420FFF7F2FC0020FFF789
:1008E00063FF10BD70B504460D464FF400503C49FF
:1008F00008601DB14010091F086003E04FF48050EC
:10090000374908604FF47060364908801020C8707D
:10091000022088703448FFF7DDFC4FF40060324954
:1009200014310860401008604010086040100860F2
:1009300004F0800010B1C814091F086004F04000E2
:1009400020B14FF4806028491031086004F0200085
:1009500020B14FF4007024491031086004F01000F9
:1009600020B14FF48070204910310860FFF79AFFE2
:100970004FF400601C4914310860401008604010BA
:1009800008604010086004F0080010B1C814091F86
:10099000086004F0040020B14FF480601249103167
:1009A000086004F0020020B14FF400700E491031CD
:1009B000086004F0010020B14FF480700A49103142
:1009C0000860FFF76FFF4FF40060074910310860BF
:1009D00040100860401008604010086070BD0000C2
:1009E000140C01401A0000200008014010B5044614
:1009F000FFF768FF00212046FFF774FF10BD10B518
:100A00000446FFF75FFF01212046FFF76BFF10BD93
:100A100008B501210C20FFF7EFFC10208DF8030032
:100A2000FF20ADF8000003208DF802006946B448AD
:100A3000FFF750FC0A20ADF800006946B148FFF707
:100A400049FC10208DF803004FF47C70ADF80000D5
:100A500002208DF802006946AA48FFF73BFCFFF729
:100A6000F1FB0420FFF7FAFD1021A648FFF7BFFCB9
:100A70002021A448FFF7BBFC4021A248FFF7B7FCA8
:100A80008021A048FFF7B3FC4FF480719D48FFF729
:100A9000AEFC4FF400719B48FFF7A9FC0022114601
:100AA0000220FFF74DFE98A0FFF772FE0022012101
:100AB0000846FFF745FE97A0FFF76AFE1EE11424E3
:100AC0003AE010218F48FFF790FC4FF400718D48F9
:100AD000FFF78BFC00252CE00A2094FBF0F09149F5
:100AE00031F8106031468648FFF783FC02218548C3
:100AF000FFF77DFC0A20FFF7D7FB02218148FFF7B3
:100B000074FC0A2094FBF0F100FB1140854931F898
:100B1000106031467A48FFF76CFC08217948FFF7EE
:100B200066FC0A20FFF7C0FB08217648FFF75DFC52
:100B30006D1C182DD0DB641E032CC2DC4FF4007139
:100B40007048FFF754FC10216E48FFF750FC032457
:100B50003AE020216B48FFF748FC4FF48071694868
:100B6000FFF743FC00252CE00A2094FBF0F06D49D0
:100B700031F8106031466248FFF73BFC02216148C2
:100B8000FFF735FC0A20FFF78FFB02215D48FFF7D6
:100B90002CFC0A2094FBF0F100FB1140614931F874
:100BA000106031465648FFF724FC08215548FFF7EE
:100BB0001EFC0A20FFF778FB08215248FFF715FCBE
:100BC0006D1C182DD0DB641E002CC2DA20214D488C
:100BD000FFF70DFC4FF480714A48FFF708FC14241E
:100BE00039E040214748FFF700FC80214548FFF7E6
:100BF000FCFB00252CE00A2094FBF0F0494931F879
:100C0000106031463E48FFF7F4FB02213D48FFF7F4
:100C1000EEFB0A20FFF748FB02213A48FFF7E5FB0D
:100C20000A2094FBF0F100FB11403E4931F81060BE
:100C300031463348FFF7DDFB08213248FFF7D7FB89
:100C40000A20FFF731FB08212E48FFF7CEFB6D1C71
:100C5000182DD0DB641E032CC3DC40212948FFF78C
:100C6000C6FB80212748FFF7C2FB03243AE020217E
:100C70002448FFF7BAFB4FF480712248FFF7B5FB19
:100C800000252CE00A2094FBF0F0264931F8106092
:100C900031461B48FFF7ADFB02211A48FFF7A7FBBF
:100CA0000A20FFF701FB02211648FFF79EFB0A20EE
:100CB00094FBF0F100FB11401A4931F81060314605
:100CC0000F48FFF796FB08210E48FFF790FB0A201C
:100CD000FFF7EAFA08210B48FFF787FB6D1C182D78
:100CE000D0DB641E002CC2DA20210648FFF77FFB10
:100CF0004FF480710348FFF77AFB00BFDFE6000086
:100D000000080140000C0140544E205669207875BF
:100D1000206C790044656E206769616F2074686F8C
:100D20006E67000000000020480D00080000002051
:100D300034000000280100087C0D00083400002069
:100D40006406000044010008C000F900A400B000DF
:100D5000990092008200F8008000900000000000DE
:100D6000000000000000000000A24A040000000093
:0C0D70000000000001020304060708094F
:040000050800018965
:00000001FF
